{
  "_format": "hh-sol-artifact-1",
  "contractName": "Game",
  "sourceName": "contracts/original-contracts/game.sol",
  "abi": [
    {
      "inputs": [
        {
          "internalType": "contract IERC20",
          "name": "token",
          "type": "address"
        }
      ],
      "stateMutability": "nonpayable",
      "type": "constructor"
    },
    {
      "anonymous": false,
      "inputs": [
        {
          "indexed": true,
          "internalType": "address",
          "name": "previousOwner",
          "type": "address"
        },
        {
          "indexed": true,
          "internalType": "address",
          "name": "newOwner",
          "type": "address"
        }
      ],
      "name": "OwnershipTransferred",
      "type": "event"
    },
    {
      "anonymous": false,
      "inputs": [
        {
          "indexed": true,
          "internalType": "address",
          "name": "_player",
          "type": "address"
        }
      ],
      "name": "PlayerSeeksVerification",
      "type": "event"
    },
    {
      "anonymous": false,
      "inputs": [
        {
          "indexed": true,
          "internalType": "address",
          "name": "_player",
          "type": "address"
        },
        {
          "indexed": true,
          "internalType": "address",
          "name": "_judge",
          "type": "address"
        }
      ],
      "name": "PlayerVerifiedToWin",
      "type": "event"
    },
    {
      "anonymous": false,
      "inputs": [
        {
          "indexed": true,
          "internalType": "address",
          "name": "player",
          "type": "address"
        }
      ],
      "name": "PlayerWon",
      "type": "event"
    },
    {
      "inputs": [
        {
          "internalType": "address",
          "name": "judge",
          "type": "address"
        }
      ],
      "name": "addJudge",
      "outputs": [],
      "stateMutability": "nonpayable",
      "type": "function"
    },
    {
      "inputs": [],
      "name": "getJudges",
      "outputs": [
        {
          "internalType": "address[]",
          "name": "",
          "type": "address[]"
        }
      ],
      "stateMutability": "view",
      "type": "function"
    },
    {
      "inputs": [
        {
          "internalType": "address",
          "name": "player",
          "type": "address"
        }
      ],
      "name": "hasBeenVerifiedToWin",
      "outputs": [
        {
          "internalType": "bool",
          "name": "",
          "type": "bool"
        }
      ],
      "stateMutability": "view",
      "type": "function"
    },
    {
      "inputs": [
        {
          "internalType": "address",
          "name": "player",
          "type": "address"
        }
      ],
      "name": "hasNotWonBefore",
      "outputs": [
        {
          "internalType": "bool",
          "name": "",
          "type": "bool"
        }
      ],
      "stateMutability": "view",
      "type": "function"
    },
    {
      "inputs": [
        {
          "internalType": "address",
          "name": "player",
          "type": "address"
        }
      ],
      "name": "hasTokens",
      "outputs": [
        {
          "internalType": "bool",
          "name": "",
          "type": "bool"
        }
      ],
      "stateMutability": "view",
      "type": "function"
    },
    {
      "inputs": [
        {
          "internalType": "address",
          "name": "judge",
          "type": "address"
        }
      ],
      "name": "isJudge",
      "outputs": [
        {
          "internalType": "bool",
          "name": "",
          "type": "bool"
        }
      ],
      "stateMutability": "view",
      "type": "function"
    },
    {
      "inputs": [
        {
          "internalType": "address",
          "name": "player",
          "type": "address"
        }
      ],
      "name": "isWinner",
      "outputs": [
        {
          "internalType": "bool",
          "name": "",
          "type": "bool"
        }
      ],
      "stateMutability": "view",
      "type": "function"
    },
    {
      "inputs": [],
      "name": "owner",
      "outputs": [
        {
          "internalType": "address",
          "name": "",
          "type": "address"
        }
      ],
      "stateMutability": "view",
      "type": "function"
    },
    {
      "inputs": [
        {
          "internalType": "address",
          "name": "judge",
          "type": "address"
        }
      ],
      "name": "removeJudge",
      "outputs": [],
      "stateMutability": "nonpayable",
      "type": "function"
    },
    {
      "inputs": [],
      "name": "renounceOwnership",
      "outputs": [],
      "stateMutability": "nonpayable",
      "type": "function"
    },
    {
      "inputs": [],
      "name": "seekVerification",
      "outputs": [],
      "stateMutability": "nonpayable",
      "type": "function"
    },
    {
      "inputs": [
        {
          "internalType": "address",
          "name": "newOwner",
          "type": "address"
        }
      ],
      "name": "transferOwnership",
      "outputs": [],
      "stateMutability": "nonpayable",
      "type": "function"
    },
    {
      "inputs": [
        {
          "internalType": "address",
          "name": "player",
          "type": "address"
        }
      ],
      "name": "verifyPlayer",
      "outputs": [],
      "stateMutability": "nonpayable",
      "type": "function"
    },
    {
      "inputs": [],
      "name": "win",
      "outputs": [],
      "stateMutability": "nonpayable",
      "type": "function"
    }
  ],
  "bytecode": "0x60806040523480156200001157600080fd5b5060405162001852380380620018528339818101604052810190620000379190620001e9565b620000576200004b6200009f60201b60201c565b620000a760201b60201c565b80600160006101000a81548173ffffffffffffffffffffffffffffffffffffffff021916908373ffffffffffffffffffffffffffffffffffffffff160217905550506200021b565b600033905090565b60008060009054906101000a900473ffffffffffffffffffffffffffffffffffffffff169050816000806101000a81548173ffffffffffffffffffffffffffffffffffffffff021916908373ffffffffffffffffffffffffffffffffffffffff1602179055508173ffffffffffffffffffffffffffffffffffffffff168173ffffffffffffffffffffffffffffffffffffffff167f8be0079c531659141344cd1fd0a4f28419497f9722a3daafe3b4186f6b6457e060405160405180910390a35050565b600080fd5b600073ffffffffffffffffffffffffffffffffffffffff82169050919050565b60006200019d8262000170565b9050919050565b6000620001b18262000190565b9050919050565b620001c381620001a4565b8114620001cf57600080fd5b50565b600081519050620001e381620001b8565b92915050565b6000602082840312156200020257620002016200016b565b5b60006200021284828501620001d2565b91505092915050565b611627806200022b6000396000f3fe608060405234801561001057600080fd5b50600436106100ea5760003560e01c8063912a49a81161008c578063ae2ac4ae11610066578063ae2ac4ae14610223578063ed896d661461023f578063f2fde38b1461026f578063f3869fbe1461028b576100ea565b8063912a49a8146101cd578063927cab47146101d75780639d9ca28d146101f3576100ea565b80634dc8e78b116100c85780634dc8e78b14610159578063715018a61461018957806376fa6554146101935780638da5cb5b146101af576100ea565b80631d1d9510146100ef5780633cefc1e01461011f578063473ca96c1461014f575b600080fd5b61010960048036038101906101049190610f88565b6102a9565b6040516101169190610fd0565b60405180910390f35b61013960048036038101906101349190610f88565b610303565b6040516101469190610fd0565b60405180910390f35b6101576103c3565b005b610173600480360381019061016e9190610f88565b6105f4565b6040516101809190610fd0565b60405180910390f35b61019161064d565b005b6101ad60048036038101906101a89190610f88565b6106d5565b005b6101b76107de565b6040516101c49190610ffa565b60405180910390f35b6101d5610807565b005b6101f160048036038101906101ec9190610f88565b6108ef565b005b61020d60048036038101906102089190610f88565b610a1a565b60405161021a9190610fd0565b60405180910390f35b61023d60048036038101906102389190610f88565b610a73565b005b61025960048036038101906102549190610f88565b610bca565b6040516102669190610fd0565b60405180910390f35b61028960048036038101906102849190610f88565b610c75565b005b610293610d6d565b6040516102a091906110d3565b60405180910390f35b6000600360008373ffffffffffffffffffffffffffffffffffffffff1673ffffffffffffffffffffffffffffffffffffffff16815260200190815260200160002060000160029054906101000a900460ff16159050919050565b600068056bc75e2d63100000600160009054906101000a900473ffffffffffffffffffffffffffffffffffffffff1673ffffffffffffffffffffffffffffffffffffffff166370a08231846040518263ffffffff1660e01b815260040161036a9190610ffa565b60206040518083038186803b15801561038257600080fd5b505afa158015610396573d6000803e3d6000fd5b505050506040513d601f19601f820116820180604052508101906103ba919061112b565b10159050919050565b6103cc33610303565b61040b576040517f08c379a0000000000000000000000000000000000000000000000000000000008152600401610402906111b5565b60405180910390fd5b610414336105f4565b610453576040517f08c379a000000000000000000000000000000000000000000000000000000000815260040161044a90611221565b60405180910390fd5b61045c336102a9565b61049b576040517f08c379a00000000000000000000000000000000000000000000000000000000081526004016104929061128d565b60405180910390fd5b600160009054906101000a900473ffffffffffffffffffffffffffffffffffffffff1673ffffffffffffffffffffffffffffffffffffffff1663a9059cbb33683635c9adc5dea000006040518363ffffffff1660e01b81526004016105019291906112f2565b602060405180830381600087803b15801561051b57600080fd5b505af115801561052f573d6000803e3d6000fd5b505050506040513d601f19601f820116820180604052508101906105539190611347565b506001600360003373ffffffffffffffffffffffffffffffffffffffff1673ffffffffffffffffffffffffffffffffffffffff16815260200190815260200160002060000160026101000a81548160ff0219169083151502179055503373ffffffffffffffffffffffffffffffffffffffff167f970f935ee01502df35da11db45c29bdd97d8f41d5a0640c1dc3bd96c67f9798760405160405180910390a2565b6000600360008373ffffffffffffffffffffffffffffffffffffffff1673ffffffffffffffffffffffffffffffffffffffff16815260200190815260200160002060000160019054906101000a900460ff169050919050565b610655610dfb565b73ffffffffffffffffffffffffffffffffffffffff166106736107de565b73ffffffffffffffffffffffffffffffffffffffff16146106c9576040517f08c379a00000000000000000000000000000000000000000000000000000000081526004016106c0906113c0565b60405180910390fd5b6106d36000610e03565b565b6106de33610bca565b61071d576040517f08c379a00000000000000000000000000000000000000000000000000000000081526004016107149061142c565b60405180910390fd5b61072681610ec7565b6001600360008373ffffffffffffffffffffffffffffffffffffffff1673ffffffffffffffffffffffffffffffffffffffff16815260200190815260200160002060000160016101000a81548160ff0219169083151502179055503373ffffffffffffffffffffffffffffffffffffffff168173ffffffffffffffffffffffffffffffffffffffff167fecc124f225be266aedd430d4c9ad47a16a21a2021df8b98cc974593fabec414760405160405180910390a350565b60008060009054906101000a900473ffffffffffffffffffffffffffffffffffffffff16905090565b61081033610303565b61084f576040517f08c379a0000000000000000000000000000000000000000000000000000000008152600401610846906111b5565b60405180910390fd5b6001600360003373ffffffffffffffffffffffffffffffffffffffff1673ffffffffffffffffffffffffffffffffffffffff16815260200190815260200160002060000160006101000a81548160ff0219169083151502179055503373ffffffffffffffffffffffffffffffffffffffff167ff387812f565af3431d038dcefb632ac8c441e403b9ce42511dae33454786fefa60405160405180910390a2565b6108f7610dfb565b73ffffffffffffffffffffffffffffffffffffffff166109156107de565b73ffffffffffffffffffffffffffffffffffffffff161461096b576040517f08c379a0000000000000000000000000000000000000000000000000000000008152600401610962906113c0565b60405180910390fd5b61097481610bca565b156109b4576040517f08c379a00000000000000000000000000000000000000000000000000000000081526004016109ab90611498565b60405180910390fd5b6002819080600181540180825580915050600190039060005260206000200160009091909190916101000a81548173ffffffffffffffffffffffffffffffffffffffff021916908373ffffffffffffffffffffffffffffffffffffffff16021790555050565b6000600360008373ffffffffffffffffffffffffffffffffffffffff1673ffffffffffffffffffffffffffffffffffffffff16815260200190815260200160002060000160029054906101000a900460ff169050919050565b610a7b610dfb565b73ffffffffffffffffffffffffffffffffffffffff16610a996107de565b73ffffffffffffffffffffffffffffffffffffffff1614610aef576040517f08c379a0000000000000000000000000000000000000000000000000000000008152600401610ae6906113c0565b60405180910390fd5b60005b600280549050811015610bc65760028181548110610b1357610b126114b8565b5b9060005260206000200160009054906101000a900473ffffffffffffffffffffffffffffffffffffffff1673ffffffffffffffffffffffffffffffffffffffff168273ffffffffffffffffffffffffffffffffffffffff161415610bb35760028181548110610b8557610b846114b8565b5b9060005260206000200160006101000a81549073ffffffffffffffffffffffffffffffffffffffff02191690555b8080610bbe90611516565b915050610af2565b5050565b6000806000905060005b600280549050811015610c6b5760028181548110610bf557610bf46114b8565b5b9060005260206000200160009054906101000a900473ffffffffffffffffffffffffffffffffffffffff1673ffffffffffffffffffffffffffffffffffffffff168473ffffffffffffffffffffffffffffffffffffffff161415610c5857600191505b8080610c6390611516565b915050610bd4565b5080915050919050565b610c7d610dfb565b73ffffffffffffffffffffffffffffffffffffffff16610c9b6107de565b73ffffffffffffffffffffffffffffffffffffffff1614610cf1576040517f08c379a0000000000000000000000000000000000000000000000000000000008152600401610ce8906113c0565b60405180910390fd5b600073ffffffffffffffffffffffffffffffffffffffff168173ffffffffffffffffffffffffffffffffffffffff161415610d61576040517f08c379a0000000000000000000000000000000000000000000000000000000008152600401610d58906115d1565b60405180910390fd5b610d6a81610e03565b50565b60606002805480602002602001604051908101604052809291908181526020018280548015610df157602002820191906000526020600020905b8160009054906101000a900473ffffffffffffffffffffffffffffffffffffffff1673ffffffffffffffffffffffffffffffffffffffff1681526020019060010190808311610da7575b5050505050905090565b600033905090565b60008060009054906101000a900473ffffffffffffffffffffffffffffffffffffffff169050816000806101000a81548173ffffffffffffffffffffffffffffffffffffffff021916908373ffffffffffffffffffffffffffffffffffffffff1602179055508173ffffffffffffffffffffffffffffffffffffffff168173ffffffffffffffffffffffffffffffffffffffff167f8be0079c531659141344cd1fd0a4f28419497f9722a3daafe3b4186f6b6457e060405160405180910390a35050565b6000600360008373ffffffffffffffffffffffffffffffffffffffff1673ffffffffffffffffffffffffffffffffffffffff16815260200190815260200160002060000160006101000a81548160ff02191690831515021790555050565b600080fd5b600073ffffffffffffffffffffffffffffffffffffffff82169050919050565b6000610f5582610f2a565b9050919050565b610f6581610f4a565b8114610f7057600080fd5b50565b600081359050610f8281610f5c565b92915050565b600060208284031215610f9e57610f9d610f25565b5b6000610fac84828501610f73565b91505092915050565b60008115159050919050565b610fca81610fb5565b82525050565b6000602082019050610fe56000830184610fc1565b92915050565b610ff481610f4a565b82525050565b600060208201905061100f6000830184610feb565b92915050565b600081519050919050565b600082825260208201905092915050565b6000819050602082019050919050565b61104a81610f4a565b82525050565b600061105c8383611041565b60208301905092915050565b6000602082019050919050565b600061108082611015565b61108a8185611020565b935061109583611031565b8060005b838110156110c65781516110ad8882611050565b97506110b883611068565b925050600181019050611099565b5085935050505092915050565b600060208201905081810360008301526110ed8184611075565b905092915050565b6000819050919050565b611108816110f5565b811461111357600080fd5b50565b600081519050611125816110ff565b92915050565b60006020828403121561114157611140610f25565b5b600061114f84828501611116565b91505092915050565b600082825260208201905092915050565b7f4e6f7420656e6f75676820746f6b656e73000000000000000000000000000000600082015250565b600061119f601183611158565b91506111aa82611169565b602082019050919050565b600060208201905081810360008301526111ce81611192565b9050919050565b7f4e6f742076657269666965642062792061206a75646765000000000000000000600082015250565b600061120b601783611158565b9150611216826111d5565b602082019050919050565b6000602082019050818103600083015261123a816111fe565b9050919050565b7f4861766520776f6e206265666f72650000000000000000000000000000000000600082015250565b6000611277600f83611158565b915061128282611241565b602082019050919050565b600060208201905081810360008301526112a68161126a565b9050919050565b6000819050919050565b6000819050919050565b60006112dc6112d76112d2846112ad565b6112b7565b6110f5565b9050919050565b6112ec816112c1565b82525050565b60006040820190506113076000830185610feb565b61131460208301846112e3565b9392505050565b61132481610fb5565b811461132f57600080fd5b50565b6000815190506113418161131b565b92915050565b60006020828403121561135d5761135c610f25565b5b600061136b84828501611332565b91505092915050565b7f4f776e61626c653a2063616c6c6572206973206e6f7420746865206f776e6572600082015250565b60006113aa602083611158565b91506113b582611374565b602082019050919050565b600060208201905081810360008301526113d98161139d565b9050919050565b7f4e6f742061206a75646765000000000000000000000000000000000000000000600082015250565b6000611416600b83611158565b9150611421826113e0565b602082019050919050565b6000602082019050818103600083015261144581611409565b9050919050565b7f416c72656164792061206a756467650000000000000000000000000000000000600082015250565b6000611482600f83611158565b915061148d8261144c565b602082019050919050565b600060208201905081810360008301526114b181611475565b9050919050565b7f4e487b7100000000000000000000000000000000000000000000000000000000600052603260045260246000fd5b7f4e487b7100000000000000000000000000000000000000000000000000000000600052601160045260246000fd5b6000611521826110f5565b91507fffffffffffffffffffffffffffffffffffffffffffffffffffffffffffffffff821415611554576115536114e7565b5b600182019050919050565b7f4f776e61626c653a206e6577206f776e657220697320746865207a65726f206160008201527f6464726573730000000000000000000000000000000000000000000000000000602082015250565b60006115bb602683611158565b91506115c68261155f565b604082019050919050565b600060208201905081810360008301526115ea816115ae565b905091905056fea2646970667358221220b1d2eb2b35d906f8192f721274f88926ac11caa2a0f5fae95d1ffc9a18284dc764736f6c63430008090033",
  "linkReferences": {},
  "deployedLinkReferences": {}
}